:020000040801F1
:10200000C00A0020F95801088F7703088F7703086A
:102010005F9803088F7703088F7703088F7703088B
:102020008F7703088F7703088F7703088F7703086C
:102030008F77030808410408137503088F77030896
:102040008F7703088F7703088F7703088F7703084C
:10205000956601088F7703088F7703088F77030849
:102060008F770308015301081F7603088F77030851
:102070008F7703088F7703088F7703088F7703081C
:102080008F7703088F7703088F7703088F7703080C
:102090008F770308216301088F7703088F77030880
:1020A0008F7703089D640108796401088F7703081E
:1020B0008F770308493403082D3E03081B2C0408BE
:1020C000172C040815360308272C04081F2C0408B5
:1020D000053E0308232C04086D3E0308D13E030887
:1020E0008F7703088F7703088F7703088F770308AC
:1020F0005F9403088F7703088F7703088F770308AF
:102100008F770308792101088F7703088F770308F9
:102110008F7703088F7703088F7703088F7703087B
:102120008F7703088F7703088F7703088F7703086B
:102130008F7703088F7703088F7703088F7703085B
:102140008F7703088F7703088F7703086B9903084D
:10215000E91C03088F770308572904085D29040840
:102160008F7703088F7703088F7703088F7703082B
:10217000013800D0FCE770472DE9F74316A5D5E9F3
:10218000004517A7D7E90067DFF85C80D8F88830EA
:102190001B0705D102220E4B5A6203B0BDE8F08343
:1021A0004146684625F07BFC009822F04BF8224619
:1021B0002B4622F0C1F83B46324622F0E7F99DF863
:1021C0000490044B03EBC903C3E90001DEE700BF41
:1021D00000600059101100205C8FC2F5285C03409C
:1021E0000000000000FEAF40004000590000000069
:1021F0002DE9F04F2DED088B8DB09DED1E7B09EE86
:10220000903ADDE920430A93229B09EE100A8A46A0
:102210000792069351EC170B53EC172BB0EE478A3D
:10222000F0EE678A22F0F0FA80B14FF0FF3251EC05
:10223000180BCF4B22F010FB40B94FF0FF326FF478
:10224000801351EC180B22F0E9FA98B1069B514625
:1022500022930A9B19EE100ACDE9204319EE903A19
:10226000079A8DED1E8B0DB0BDEC088BBDE8F04FCD
:1022700000F0A2B90022002351EC180B22F0CEFA94
:10228000002800F0448118EE903A18EE108A03F10D
:102290000049069BC9F30A5013F48063A0F2FF3093
:1022A00008BF06240B9321F0DDFFA1A3D3E900238F
:1022B00022F042F8A0A3D3E9002321F087FEC9F35E
:1022C00013050F4645F07F5106460022A94B4046B4
:1022D00041F4401121F078FE99A3D3E9002322F0C4
:1022E0002BF802460B463046394621F06FFE22F0AD
:1022F000BDFA834621F0B6FF93A3D3E90023064637
:102300000F4622F019F800229B4B21F05FFE22F0CD
:10231000ADFA8FA3D3E9002305463946304622F0B3
:102320000BF8064628460F4621F09CFF8AA3D3E906
:10233000002322F001F802460B463046394621F0D0
:1023400043FE02460B4606460F4621F0F5FF324695
:1023500041EC1A0B3B463046394621F037FE00224D
:1023600041EC1B0B854B51EC1A0B22F00FF90022AC
:10237000834B21F02BFE02460B4651EC1A0B22F048
:1023800005F900227F4B21F021FE02460B4651EC5D
:102390001A0B22F0FBF8324641EC1A0B3B460020A8
:1023A0004FF0804121F010FE02460B4651EC1A0B13
:1023B00021F00CFE02460B4651EC1B0B22F0E6F816
:1023C00005F2FF350022704B21F000FE00222B05A4
:1023D00021F0B2FF42464B4606460F4622F03CFA39
:1023E000002840F09780CDE908670BF16303C72B05
:1023F000069B34BF04250525190521D558A3D3E92B
:1024000000234046494622F01DFA002800F0BE8015
:1024100055A3D3E900234046494622F0FFF900289E
:1024200000F0B48000255C45CCBFA4EB0B00002479
:10243000AB46069BC8BF00F1FF3443F480630693AC
:102440000A9B9D4238BF5E1B069B28BF002613F0E7
:10245000020702D0002D18BF0026BBF1000F07D0E5
:10246000DDE908234046494622F090F88046894637
:102470000022002351EC180B22F0D0F910B109F121
:1024800000439946069B514623F40063CDE903635C
:1024900019EE100A19EE903ACDE90089079A0294D4
:1024A00000F08AF875B3069B024613F0200F00F186
:1024B000010619EE903A14BF45206520514619EEE9
:1024C000104AA0470523002205930A238BEAEB70EC
:1024D000CDE90232A0EBEB704FEADB73013D0193D3
:1024E000009019EE903A3246514619EE100A0495C2
:1024F00028F08CFB37B1079BC51A079B58190A9B1C
:10250000AB424CD80DB0BDEC088BBDE8F08F59EC58
:10251000188BBEE6002230463946194B22F036F8B9
:102520000BF1FF3BCDE908015FE700BFAFF300808F
:10253000FB799F501344D33FB3C8608B288AC63FB2
:1025400061436F63A787D23F71A379094F930A4014
:102550001655B5BBB16B0240EF39FAFE422EE63F8D
:102560002D431CEBE2361A3F0000000080842E4110
:10257000FFFFEF7F0000F83F0000E03F00002C402D
:1025800000002440000018400000F03F002C3FF401
:1025900057AF0B9B002B3FF453AF013C50E7024673
:1025A00019EE903A5146202019EE104AA047013505
:1025B000A3E700BF000000002DE9F04F2DED088BD0
:1025C0008FB0DDE920AB08EE100A0F4608EE902A26
:1025D00009EE103ADDE922535246049350465B4619
:1025E0005946249E22F010F9A0B9049B2396229309
:1025F00003232193B84B209318EE902A19EE103A3A
:10260000394618EE100A0FB0BDEC088BBDE8F04F4C
:1026100028F034BA4FF0FF326FF480135046594619
:1026200022F0FCF830B1049B2396229304232193DB
:10263000AA4BE0E74FF0FF3250465946A84B22F034
:102640000BF970B1A74A06F00403002B08BF032260
:10265000A54B1CBF1346042204992396CDE92121E2
:10266000C9E7504698A3D3E90023594622F0F4F86D
:1026700038B997A3D3E900235046594622F0CEF843
:1026800098B1049B18EE902ACDE92253394619EEF1
:10269000103A18EE100ACDE920AB24960FB0BDEC2D
:1026A000088BBDE8F04FFFF7A3BD00220023504682
:1026B000594622F0B3F8002800F081805B4652466C
:1026C0000020002121F080FC012382468B460593E7
:1026D00016F4806F08BF06253021A94606ABA5F188
:1026E0002002B9F1090FA5EB090406D909F1FF3958
:1026F0004A4503F8011BF4D120245946504622F0E4
:10270000B5F87A4B054603EBC90393ED007BB0EEB9
:1027100047AAF0EE67AA21F0A5FD02460B465046F7
:10272000594621F051FC53EC1A2B21F005FE0246CC
:102730000B4643EC1B2B22F0C1F8804621F082FDB2
:1027400002460B4651EC1B0B21F03EFC02460B46A9
:1027500043EC1B2B0022664B22F07EF888B308F175
:102760000108404621F06EFD02460B4651EC1A0B63
:1027700022F05EF810B14FF000080135B9F1000FFA
:1027800051D1284621F06EFD02460B46504659466F
:1027900021F01AFC0022564B8046894622F03EF872
:1027A00030B1002240464946514B22F055F810B155
:1027B000E80700D5013506AB0A2223445AE005900C
:1027C00086E7002251EC1B0B494B22F027F800282A
:1027D000D4D1B8F1000F02D018F0010FCED008F11B
:1027E0000108CBE7B8FBF1F001FB1082B8F1090F4B
:1027F00002F1300209F1FF3904F1010403F8012B61
:1028000028D83021A14406AA202C11D04C4504F12F
:10281000010321D104F138020DEB02042E2204F849
:10282000202C1C46C7E70A2106AB2344202CD9D113
:1028300006F00303012B06AB39D1049A002A36D0E7
:10284000059A12B916F00C0F02D0049A013A0492BC
:10285000302214E08046E9E7A1541C46D4E795FBFA
:10286000F2F102FB1155303503F8015B01340D46DE
:102870000029DDD0202CF2D1DAE71A550134049971
:10288000A14214D9202CF8D1049A0093CDE9014239
:1028900019EE103A18EE902A394618EE100A0396EF
:1028A00028F0ECF80FB0BDEC088BBDE8F08F202CC1
:1028B000EAD0059AF2B12D2104F138026A4402F8F7
:1028C000201C0134E0E700BF0000000065CDCD41D1
:1028D0000000000065CDCDC1AF560408B356040812
:1028E000FFFFEF7FAA560408A6560408B85604084E
:1028F0000000E03F710704D504F138022B216A443F
:10290000DDE73207C0D504F1380220216A44D6E75A
:1029100070B505463E4C8AB020B100230088236084
:1029200010F0EAF83B482FF049FD3B4E3B4B304658
:1029300033603B4B73602BF071FD002130461AF081
:1029400073FB31A3D3E90023A062C4E906232BF073
:102950006DFDD4E90623194310434FF0FF33C4E95A
:102960000601CDE900014FF0FF32A06A2FF06DFDA6
:1029700002224FF0FF31A06A2FF06CFD01200FF012
:102980007BFE4FF4007300222649A06A2FF0B8FDA9
:10299000B0F5007F36D100239422CDE907330993A7
:1029A0003C23CDE9033205939623A06A03A906933D
:1029B0001AF088FC25B3287C10F0BCFA0546E0B973
:1029C000A06A2FF07EFE10F05DFA0FF037FE20B106
:1029D0004FF4807000210EF00BFC0FF03FFE20B191
:1029E0004FF4006000210EF003FC01201AF070FB90
:1029F0000D4A0E49A06A2BF00FFD28460AB070BDA3
:102A0000FF20D9E70725F8E709D501552000000088
:102A100088110020690345ECE0280020DD2C020825
:102A2000D4280020D4260020C1E3030801E40308D1
:102A30002DE9F04F1F460023044688464FF0000A58
:102A40004FF0000B2DED028B9DB018939F4B13920E
:102A50001B681846059330F06BFA0546CDF85C808C
:102A6000179B1A782B2A4ED03BD80D2A34D8082A27
:102A700034D8002A3ED000230A93179E3378302B97
:102A800040F0B080737803F0DF03582B68D10A9BC5
:102A900017A902972046019318AB8D4A009319ABF2
:102AA00023F0E8FB10F00707054605D0062F2CD1D0
:102AB0000136002317960A93139B002B40F08E8556
:102AC0000A9BEBB152460BF1004343EC102B1DB0B7
:102AD000BDEC028BBDE8F08F202ACCD101331793D7
:102AE000BEE72D2AC7D101220A925A1C17925B78A1
:102AF000002BC2D1139BCDF85C80002B40F06C857D
:102B000052465B46E1E70022EEE7189A3AB13521DA
:102B10001AA830F01BFD1899204623F081FE013FD2
:102B2000042F06D8DFE807F00A0314170A00DDE9CE
:102B30001AAB2807C0D54BF0004BBDE7DDE91AA35F
:102B4000199A23F4801302F2334243EA025BF0E75E
:102B5000DFF880B1EDE76FF0004B4FF0FF3AE8E7A8
:102B6000179B5A1C17925B78302BF9D0002BA3D0FF
:102B700001234FF0000904930A22179B4F46CDF81A
:102B80001C90089317980678A6F13003D9B209294A
:102B90002AD92A46059930F0D3F9A0B3002032464D
:102BA0003D4603460590652A01D0452A18D11DB936
:102BB000049A02439ED00025DDF85C8008F10102F2
:102BC000179298F801202B2A75D02D2A7BD04FF030
:102BD000000CA2F13001092940F28280CDF85C801E
:102BE00000269DE00023C4E7082F00F1010007F153
:102BF0000107D4BF079902FB09391790DCBF02FB1C
:102C000001330793BEE7179B5A1917925A5D002F9D
:102C100036D03D460590A2F13003092B12D901238D
:102C2000C1E7179B01305A1C17925A78302AF8D006
:102C3000A2F13103082B00F2D68405900020179BE7
:102C400005460893303A00F1010313D0059900EBD3
:102C5000050E19442B4605910A21734512D12B18F4
:102C60000135082B05441CDC07990A2303FB0123CB
:102C700007930023179A1846511C17915278CAE7F8
:102C80003846D3E7082B04DC079E4E4307960133F2
:102C9000E3E703F1010CBCF1100FD8BF01FB09F908
:102CA000F5E7102DDCBF0A2303FB0929E1E7002328
:102CB000059301237CE74FF0000C08F10202179204
:102CC00098F8022085E74FF0010CF6E7C89C04084D
:102CD000A09A04080000F07F179A511C17915278AF
:102CE000302AF9D0A2F1310108293FF679AFA2F1DB
:102CF000300E179A0692179A511C17915278A2F12A
:102D00003006092E37D9069E891B44F61F6608290E
:102D100002DC7645A8BF7646BCF1000F00D07642B3
:102D2000002D4DD1049901437FF4C6AE002B7FF4F2
:102D3000E1AE692A27D024DC492A24D04E2A7FF428
:102D4000D9AE9F4917A830F06BFA00283FF4D2AEF5
:102D5000179B1B78282B2DD11AAA9A4917A830F057
:102D600073FA052826D11B9BDDF868A043F0FF4BC2
:102D70004BF4E00BA0E60A2101FB0E2EAEF1300E63
:102D8000B9E76E2ADBE7904917A830F049FA002826
:102D90003FF4B0AE179B17A88C49013B179330F056
:102DA0003FFA10B9179B01331793DFF830B24FF099
:102DB000000A81E6864801F02BFA5BEC10AB7BE65B
:102DC000059B002F08BF2F46102D0798A6EB030385
:102DD000A846A8BF4FF01008069321F033FA092D3A
:102DE00082468B4613DD7B4B03EBC80353E912236A
:102DF00021F0A2FA82468B46484621F023FA024689
:102E00000B465046594621F0E1F882468B460F2D7D
:102E100038DC069B002B3FF44FAE24DD162B0BDC79
:102E20006C49524601EBC3015B46D1E9000121F038
:102E300083FA82468B463FE6C5F12503069A934204
:102E400020DBC5F10F05634C52465B4604EBC50120
:102E5000D1E9000121F070FA069B5D1B04EBC5046B
:102E6000D4E90023E3E7069B16330BDB059B5046B2
:102E700059469E1B574B03EBC606D6E9002321F0AB
:102E800085FBD6E7A5EB0808069B9844B8F1000F30
:102E900074DD18F00F030AD04E49524601EBC3010E
:102EA0005B46D1E9000121F047FA82468B4638F0B3
:102EB0000F084FD0B8F59A7F22DD00252E460795E2
:102EC00005952223DFF814B14FF0000A2360079B19
:102ED000002B3FF4F1AD1899204623F0A1FC059991
:102EE000204623F09DFC3146204623F099FC0799AB
:102EF000204623F095FC2946204623F091FCDBE593
:102F0000354B4FEA281850465946049300239946FA
:102F1000B8F1010F21DC0BB182468B462E4BABF191
:102F2000547B524603EBC9095B46D9E9000121F005
:102F300003FA2A4B0A4682460B4029498B42BCD8E9
:102F4000A1F580118B4286BFDFF898B04FF0FF3AB1
:102F500002F1547B0023049383E018F0010F05D0A5
:102F6000049BD3E9002321F0E7F90123049A09F136
:102F700001094FEA680808320492C9E7EAD0C8F1AB
:102F8000000818F00F020AD0124B5046594603EBC6
:102F9000C203D3E9002321F0F9FA82468B465FEAA7
:102FA0002818D7D0B8F11F0F1EDD00252E46079533
:102FB000059522234FF0000A4FF0000B236086E7AF
:102FC000B0560408B49A04086D9A04082F9B0408AC
:102FD000C6550408889D0408609D04080000F07F21
:102FE0000000A07CFFFFEF7F18F010035046594609
:102FF000DFF8A89318BF6A230493002318F0010F89
:1030000004D0D9E9002321F097F901235FEA680889
:1030100009F10809F2D10BB182468B46049BC3B17A
:10302000CBF30A525946C2F16B03002B11DD1F2B63
:1030300040F32181342B4FF0000ADBBFC2F14B0279
:103040004FF0FF334FF05C7B03FA02F2D8BF02EA85
:10305000010B002200235046594621F0D5FB0028E1
:10306000A3D1079B3A460899204600932B4623F0AC
:1030700041FC079000283FF420AF059B00259E1BD4
:10308000069B002BB4BF334600232E460C93069BB1
:1030900023EAE3731293079B2046596823F080FBD1
:1030A000059000283FF40DAF079B0C301A6903F11F
:1030B0000C01023292002FF0DCFD1AAA19A9204659
:1030C0004BEC10AB23F0F2FE18904BEC18AB002841
:1030D0003FF4F7AE0121204623F056FC06460028B7
:1030E0003FF4EFAE199B0499002BA3EB0108A9BF95
:1030F0000C9A129A03EB0209129FB8BFD71A1A9AB8
:10310000A14B9044B8BFDDF83090C2F1360208F10F
:10311000FF38984580F2C380A3EB080301211F2BE1
:10312000A2EB030200F3AE8001FA03F30D93002338
:10313000089309EB0208049B1744C1451F444B4602
:10314000A8BF4346BB42A8BF3B46002BC2BFA8EB6B
:103150000308FF1AA9EB03090C9B002B17DD31466E
:103160001A46204623F0CEFC064600283FF4A9AEBE
:103170000146189A204623F01DFC0B9000283FF4CE
:10318000A0AE1899204623F04BFB0B9B1893B8F187
:10319000000F00F38980069B002B08DD129A204661
:1031A000059923F0AFFC059000283FF48AAE002F6C
:1031B00008DD3A460599204623F0FEFC05900028DC
:1031C0003FF47FAEB9F1000F08DD31464A46204694
:1031D00023F0F2FC064600283FF473AE059A204621
:1031E000189923F059FD054600283FF46AAEC368DC
:1031F00031460B930023C36030F059F900285DDAA3
:103200000B9B53EA0A037FD1CBF31303002B7BD133
:103210002BF000431B0D1B05B3F1D66F74D96B69FE
:1032200013B92B69012B6FDD29460122204623F0BB
:10323000C3FC3146054630F03AF9002864DD0499B4
:103240005B46524A00297FD002EA0B01B1F1D66FEA
:103250007ADCB1F15C7F7FF7ACAE4D4B50465946FE
:10326000002221F069F80B4682468B46034304BFD7
:10327000222323602FE64FF0FF3202FA03F303EA22
:103280000A0AE6E6C8F17F480D9108F57F0808F5BF
:103290007B4808F1E20801FA08F3089349E70023A4
:1032A000089301230D9344E742461899204623F0E2
:1032B00083FC189000287FF46EAF02E65F466FD162
:1032C0000B9ACBF3130342B3324A934228D1049BA7
:1032D0005146EBB12D4B4FF0FF323B40B3F1D46F71
:1032E00019D81B0DC3F16B0302FA03F3994217D1EE
:1032F000294B9F4202D101313FF4E3AD234B4FF004
:10330000000A3B4003F5801B049B002BA5D1E2E59E
:103310004FF0FF33EAE71346E8E753EA0A038ED09B
:10332000089BDBB13B42EFD00B9B5046049A5946B9
:10333000C3B12FF019FE02460B4651EC180B20F0DA
:1033400045FE82468B46DFE713404FF0FF3AA3F578
:1033500080136FEA135B6FEA0B5BD5E70D9B13EAF3
:103360000A0FE0E72FF000FE02460B4651EC180B67
:1033700020F02AFE0022002382468B4621F044FAE8
:103380000028C1D015E600BF02FCFFFF0000F07F5F
:1033900000005039FFFF0F00FFFFEF7FC89A0408BD
:1033A0003146284630F09FF800224FF0804310EE5F
:1033B000100A59EC108B494621F03AFA00287AD0CD
:1033C0000B9B002B4AD00022934B4FF00008DFF8F4
:1033D0004892CDE90823914B3B400D930D9A904BB9
:1033E0009A4240F0B080A7F1547BDDE908014BEC34
:1033F00010ABCDE9080123F0DFFCDDE9080153EC57
:10340000102B20F099FF52465B4620F0DFFD0B4663
:1034100082498246834A1940914260D918EE903A17
:1034200002F15472934204D118EE103A01333FF482
:1034300048ADDFF8FCB14FF0FF3A1899204623F071
:10344000EFF90599204623F0EBF93146204623F0A9
:10345000E7F92946204623F0E3F91CE6BAF1000F0C
:103460001BD1CBF31303F3B900226B4B4046494603
:1034700021F0D4F9D0B94046494600226A4B20F0E9
:103480005BFF8046894609F10043CDF850801593D3
:10349000DDE91423CDE908239DE7BAF1010F02D13C
:1034A000002F3FF486AD0022604B8EE74FF00008FE
:1034B000DFF87491E7E75C4B40464946002220F074
:1034C0003BFF0B9B8046894633B901F100430E90C8
:1034D0000F93DDE90E23DDE7CDE90E89F9E703F16E
:1034E000547B049B002BA8D12BF000430D9A1B0D9D
:1034F0001B059A42A1D14046494623F0BBFF20F06C
:10350000EDFE02460B464046494620F05DFDCBF3FA
:1035100013030B9A804643EA0A038946134355D0A6
:1035200035A3D3E9002321F079F900287FF4D3AC47
:103530004046494632A3D3E9002321F08DF9002803
:103540003FF47BAFC7E4049B33B30D9BB3F1D46F5F
:1035500022D8404649462CA3D3E9002321F068F93C
:10356000A0B14946404621F0A9F9012838BF012001
:1035700020F068FE0B9B8046894623BB01F1004387
:1035800010901193DDE91023CDE90823099B0D9AD2
:1035900003F1D6639B1A0993B0EE480AF0EE680A6D
:1035A000DDE90801CDE9080123F006FCDDE90801A9
:1035B00053EC102B20F0C0FE53EC182B20F006FD2E
:1035C00082468B468DE7CDE91089DBE710A3D3E96E
:1035D000002321F023F9B2E700230A93179B139AE3
:1035E0001360FFF76DBA652A3FF461AB452A3FF4DB
:1035F0005EAB0123FFF796BB9535A094FFFFDF3F3D
:1036000035E5AF350000E03F0000C0FFFFFFDF41C0
:103610009535A094FFFFCF3F0000F03F0000F07F02
:103620000000E07FFFFF9F7C0000E03F0000F0BF54
:10363000FFFFEF7F000000002DE9F04F456A0446D0
:1036400010EE10AA2DED048B93B057EC106BDDF843
:103650008080BB46069109920C9375B9102021F029
:103660006DFB0246606220B9A74BEA21A74822F011
:103670004BFCC0E901550560C560636A196851B12A
:103680005A680123204693404A608B6023F0C8F8B3
:10369000636A00221A603B1EADBF0023012223F0A3
:1036A000004BC8F800309A4BB8BFC8F8002033EA86
:1036B0000B031BD142F20F730C9A1360CBF313036D
:1036C000334300F08F85219B63B9924B22E0924BEC
:1036D00001930833219A1360019813B0BDEC048B59
:1036E000BDE8F08F8B4B01930333F3E700220023F7
:1036F0005046594621F088F880464BEC19AB58B13A
:1037000001230C9A1360219B002B00F068858348ED
:103710001860431E0193DFE7CBF30A5510AA11A9E5
:1037200020464BEC10AB23F0C1FB08EE100A002D35
:1037300000F0828019EE903A5646A5F2FF35CDF89A
:103740003880C3F3130343F07F5747F44017002238
:10375000734B3046394620F037FC65A3D3E900238C
:1037600020F0EAFD64A3D3E9002320F02FFC0646F5
:103770000F46284620F076FD61A3D3E9002320F010
:10378000DBFD02460B463046394620F01FFC06465C
:103790000F4621F06BF80022009000233046394696
:1037A00021F03CF850B1009820F05CFD32463B46D9
:1037B00021F02AF810B9009B013B0093009B162BC7
:1037C00059D8009A574B03EBC20351EC190BD3E9BC
:1037D000002321F023F800284FD0009B013B0093E9
:1037E00000230B93109B5D1B6B1E059349BFC5F116
:1037F000010300230493002354BF04930593009B0B
:10380000002B3CDB059B009A13440A92059300238E
:103810000793069B092B00F28980052BC5BF043B4B
:10382000002501250693069B023B032B00F28980AD
:10383000DFE803F02E3B395ADDE910531D4405F251
:103840003243202BC6BFC3F1400305F21240C3F13F
:10385000200305F1FF35C5BF0BFA03F326FA00F08C
:1038600006FA03F0184320F0EDFC01230646A1F10F
:10387000F8770E936BE70123B3E70B90B2E7049B55
:10388000009A9B1A04935342079300230A93C0E7BC
:1038900000230893099B002B56DC01231A46CDE92F
:1038A000023309920CE00123F3E70023099A0893FD
:1038B000009B134402930133012B0393B8BF0123F0
:1038C0000022606A4260042202F1140641689E42AE
:1038D0003ED9204622F064FF019000283CD1124BD3
:1038E00002464FF4D571C1E60123DFE7AFF3008054
:1038F00061436F63A787D23FB3C8608B288AC63FF6
:10390000FB799F501344D33F399B0408509B040814
:103910000000F07F359B04082C9B0408759A04086E
:103920000000F83F889D0408CE9B04080125002371
:10393000089506934FF0FF330022CDE9023312239E
:10394000AFE701230893F5E7099BCDE90233B7E719
:10395000013152004160B7E7636A019A1A60039B24
:103960000E2B00F29D80002D00F09A80009B002B12
:1039700032DD03F00F03B64A02EBC303D3E900893B
:10398000009BD8054FEA231716D5B24B07F00F0757
:103990000325D3E9082351EC190B20F0F7FD8246EB
:1039A0008B46AC4E57B942464B465046594620F0DE
:1039B000EDFD82468B4628E00225F2E7F90708D59F
:1039C000404649460135D6E9002320F0B5FC804643
:1039D00089467F100836E5E700F09B80009B0225B2
:1039E0009C4F5E429A4B06F00F02361103EBC20366
:1039F00051EC190BD3E9002320F09EFC00238246F2
:103A00008B46002E7AD1002BD3D10B9B002B00F0DC
:103A100082800022904B5046594620F0FFFE00283D
:103A200079D0039B002B76D0029B002B36DD009BC8
:103A30005046594600225F1E884B20F07DFC013520
:103A400082468B46029E2846D04620F00BFC52460A
:103A50005B46D94620F070FC0022814B20F0B6FA7C
:103A60008246A1F1507B002E58D100227D4B40466A
:103A7000494620F0A9FA52465B468046894620F026
:103A8000EBFE002840F0938252460BF10043404683
:103A9000494620F0C3FE002840F087825BEC19AB5A
:103AA000119B002BC0F24881009A0E2A00F344813A
:103AB000674B03EBC203D3E90089099B002B80F21B
:103AC000D580039B002B00F3D18040F06D82002253
:103AD000644B4046494620F02FFC52465B4620F09E
:103AE000B1FE039E3746002840F043823123019DFA
:103AF00005F8013B009B013300933EE2F20705D538
:103B00000135D7E9002320F017FC01237610083790
:103B100077E7022579E7009F039E94E701994C4BD4
:103B2000314403EBC6030D91089953E902230029A0
:103B300043D000204C4920F029FD52465B4620F03E
:103B400043FA019D82468B464946404620F08EFE50
:103B5000064620F087FB024630360B464046494673
:103B600020F032FA52465B4605F8016B80468946E2
:103B700020F054FE002863D142464B4600203649CF
:103B800020F022FA52465B4620F048FE002840F022
:103B9000B5800D9B9D4281D00022304B5046594646
:103BA00020F0CAFB002282468B46404649462B4BFA
:103BB00020F0C2FB80468946C6E75046594620F0B1
:103BC000BBFB0D9B82468B46019D0F9349464046A9
:103BD00020F04CFE064620F045FB02460B464046D0
:103BE0004946303620F0F0F90D9B05F8016B804610
:103BF0009D4289464FF0000224D11B4B5046594646
:103C000020F0E4F902460B464046494620F024FEE7
:103C1000002873D152465B460020134920F0D4F9A6
:103C200002460B464046494620F0F8FD00283FF486
:103C300035AF0F9D6B1E0F9315F8013C302BF8D05C
:103C4000009749E0054B20F077FB80468946BDE7A9
:103C5000889D0408609D04080000F03F0000244097
:103C600000001C40000014400000E03F56465F4644
:103C7000019D42464B463046394620F087FC20F0F5
:103C8000F5FD824620F0EEFA42464B4620F054FB0A
:103C9000024630460AF130060B46394620F094F9C8
:103CA00005F8016B019E0246039F0B46AE1BB7420F
:103CB00035D120F08BF942464B4606460F4620F0A0
:103CC000CBFDD0B942464B463046394620F09CFDEC
:103CD00010B11AF0010F10D1204618EE101A22F080
:103CE0009FFD002300982B7001300C9B1860219BD6
:103CF000002B3FF4F1AC1D60EEE4009F2B461D4607
:103D000013F8012D392A06D1019A9A42F7D13022AF
:103D1000019901370A701A7801321A7090E700226F
:103D2000A44B20F009FB0022002306460F4620F09A
:103D30006BFD00289DD0CFE7089A002A00F0D580BF
:103D4000069A012A00F3B9800E9A002A00F0B18089
:103D500003F23343079E049D049A012120461A442E
:103D60000492059A1A44059222F00EFE0746002D91
:103D70000CDD059B002B09DDAB42049AA8BF2B4646
:103D8000D21AED1A0492059AD31A0593079B1BB316
:103D9000089B002B00F0AD80002E13DD3946324623
:103DA000204622F0AFFE18EE102A014607462046B4
:103DB00022F000FE804618EE101A204608EE108A07
:103DC00022F02EFD079B9A1B06D018EE101A2046F3
:103DD00022F098FE08EE100A0121204622F0D4FDC0
:103DE0000A9B0646002B40F386801A460146204671
:103DF00022F088FE069B0646012B7FDD4FF000086F
:103E0000336906EB830318692FF002FBC0F1200031
:103E1000059B184410F01F0000F09180C0F12003B2
:103E2000042B40F38980C0F11C00049B054403442B
:103E30000493059B03440593049B002B07DD18EEB8
:103E4000101A1A46204622F0B7FE08EE100A059B0B
:103E5000002B05DD31461A46204622F0ADFE06460F
:103E60000B9B002B6DD0314618EE100A2FF01FFB74
:103E7000002866DA009B18EE101A0A222046013B41
:103E80000093002322F0EEFC089B08EE100A002BA2
:103E900000F0AF81002339460A22204622F0E2FCDE
:103EA000029B0746002B00F38D80069B022B50DC03
:103EB00088E0109BC3F136034CE7039B5E1E079B13
:103EC000B342B7BF079B9E1B0796F21ABFBF0A9B60
:103ED00000269B180A93039B002BB7BFDDE9032341
:103EE000DDE903359D1A002336E7079E049D089FF0
:103EF0003DE7079A69E7069B012B18DCBAF1000F32
:103F000015D1CBF3130393B92BF000431B0D1B0505
:103F100083B1049B4FF0010801330493059B0133E7
:103F200005930A9B002B7FF46BAF012070E74FF0E5
:103F30000008F6E79846F4E73FF47EAF18461C30D9
:103F400073E7039B002B37DC069B022B34DD039BBE
:103F50000293029B6BB931460522204622F082FC77
:103F60000146064618EE100A2FF0A1FA00283FF786
:103F7000BDAD099B019DDB4300934FF00008314626
:103F8000204622F04DFC002F3FF4A6AEB8F1000F02
:103F900005D0B84503D04146204622F041FC3946C1
:103FA000204622F03DFC97E600263746E1E70097E1
:103FB00037469BE500002440089B002B00F0CA8098
:103FC000039B0293002D05DD39462A46204622F048
:103FD000F3FD0746B8F1000F5BD07968204622F068
:103FE000DFFB054628B9874B024640F2EA21FFF77E
:103FF0003DBB3A6907F10C010C30023292002EF001
:1040000038FE01222946204622F0D6FD019BB84603
:10401000074603F10109DDE90123134405930AF082
:1040200001030493314618EE100A2EF0BBFF4146FF
:10403000029000F1300A18EE100A09F1FF3B2FF050
:1040400036FA3A4603903146204622F025FEC268F1
:10405000054602BB014618EE100A2FF028FA024668
:1040600029462046079222F0DBFB4D46DDE9063269
:1040700043EA0201049B0B430FD1BAF1390F2AD056
:10408000039B002B02DD029B03F1310A8BF800A099
:1040900075E73846BAE70122E2E7039B002B04DB11
:1040A00006990B4304990B4322D1002AEEDD18EE4A
:1040B000101A0122204622F07FFD314608EE100A38
:1040C0002FF0F5F9002803DCE0D11AF0010FDDD064
:1040D000BAF1390FD7D139238BF800302B461D4662
:1040E000013B15F8012C392A70D001321A7046E7CD
:1040F000002A07DDBAF1390FEDD00AF101038BF880
:1041000000303CE7059B09F801AC994546D018EE14
:10411000101A00230A22204622F0A4FBB84508EE1C
:10412000100A4FF000034FF00A024146204606D124
:1041300022F098FB8046074609F1010972E722F058
:1041400091FB3946804600230A22204622F08AFB52
:104150000746F1E7039B0293019D314618EE100AD2
:104160002EF020FF019B00F1300A05F801ABEA1A9E
:10417000029B934209DD18EE101A00230A22204602
:1041800022F070FB08EE100AE7E7029B4FF00008F0
:10419000002BCCBF1D460125019B1D4418EE101AB3
:1041A0000122204622F008FD314608EE100A2FF0C9
:1041B0007EF9002892DC02D11AF0010F8ED12B4635
:1041C0001D4613F8012D302AFAD0D8E6019A9A42FA
:1041D00085D1009B0133009331231370CFE60A4B46
:1041E000FFF798BA219B002B7FF471AA074BFFF7CA
:1041F00091BA029B002BAFDC069B022B3FF7A9AEC6
:10420000AAE700BFCE9B0408749A04082C9B0408FC
:104210009FED010B704700BF000000000000F87F19
:1042200010B5054C237833B9044B13B1044800E0B2
:1042300000BF0123237010BDE01300200000000028
:10424000709E040808B5034B1BB10349034800E006
:1042500000BF08BD00000000E4130020709E0408A9
:10426000A3F5803A704700BF174B002B08BF134BD4
:104270009D46FFF7F5FF00218B460F461348144A71
:10428000121A2EF01DFD0E4B002B00D098470D4B3F
:10429000002B00D098470020002104000D000D489D
:1042A000002802D00C4800E000BF20F023FD2000D1
:1042B000290023F022F920F009FD00BF00000800CA
:1042C0000000000000000000C00A0020F4100020E0
:1042D000402F00200000000000000000064B40229C
:1042E000197821B905490A6401221A7070470449F6
:1042F0000A640022F9E700BF032E002000D003501B
:1043000000E00350064B8022197821B905490A6460
:1043100001221A70704704490A640022F9E700BFBD
:10432000022E002000D0035000E00350074B08226B
:104330001978074B29B90749C1F8D02001221A7012
:1043400070470549C1F8D0200022F8E7032E00206D
:10435000052E002000D0035000E00350074B102230
:104360001978074B29B90749C1F8A02001221A7012
:1043700070470549C1F8A0200022F8E7022E00206E
:10438000042E002000D0035000E0035010B500F0D0
:1043900035FD05220021184823F0A2F8174B1868B4
:1043A00023F03DFA01213A2002F0ECFB0023042225
:1043B0001846062103F0EAFD0023042218460721CF
:1043C00003F0E4FD022201231146032003F0DEFD89
:1043D000012302221946184603F0D8FD04220023C7
:1043E0001146022003F0D2FDBDE810400321002356
:1043F0000422084603F0CABDF8100020F00A00208D
:1044000007B51248D0F8D4305A070FD4436F9B0732
:1044100007D5FFF777FF00230D4A0193019B9342D5
:1044200010DD03B05DF804EB00F0F4BCFFF756FFBD
:104430000023074A0093009B9342E7DC009B013373
:104440000093F8E7019B01330193E7E700C00350B5
:104450003F420F0070B50368A04A23F47F4323F066
:104460000703934204468EB000F017820AD8A2F5E3
:104470001022934247D002F5A022934200F090818F
:104480000EB070BD964A9342FAD1032001F01EF996
:1044900060B1944C9449206825F024F823F012F977
:1044A00023F011F99149206825F01CF8904C022165
:1044B000207811F065FB0546002800F0AE81894C9C
:1044C0008C49206825F00EF88B49206825F00AF801
:1044D00023F0F8F823F0F7F8884B894A00938949CC
:1044E00040F23713206824F0FDFF87492B46874AA6
:1044F000206824F0F7FF284601F02EF9844920684F
:1045000024F0F0FFFEE7032001F0E0F890B1754DD4
:104510007549286824F0E6FF23F0D4F823F0D3F897
:1045200063897C49019323890093E388A2882868E2
:1045300024F0D8FF0BA90CA811F0D0FB054610B34E
:10454000684C6C49206824F0CDFF6B49206824F04A
:10455000C9FF23F0B7F823F0B6F8684B684A009318
:104560006849FB23206824F0BDFF67492B46674A52
:10457000206824F0B7FF284601F0EEF8644920686F
:1045800024F0B0FFFEE7032001F0A0F820B3554C63
:104590005549206824F0A6FF23F094F823F093F8FF
:1045A0009DF830309DF82C0004939DF831305A4925
:1045B00003939DF83230594A02939DF83330002816
:1045C00008BF0A4601939DF834305549009320688E
:1045D0009DF8353024F086FF454E304611F096FAAE
:1045E000054618B33F4C4349206824F07BFF4249FD
:1045F000206824F077FF23F065F823F064F83F4B40
:104600003F4A00933F494FF48473206824F06AFFC7
:104610003D492B463D4A206824F064FF284601F0BE
:104620009BF83B49206824F05DFFFEE702213078CB
:1046300011F0A6FA044618B32A4D2E49286824F032
:1046400051FF2D49286824F04DFF23F03BF823F05B
:104650003AF82A4B2A4A00932A4940F20D13286857
:1046600024F040FF28492346284A286824F03AFFCE
:10467000204601F071F82649286824F033FFFEE750
:10468000A022034600901146307811F057FA0546F3
:10469000002847D0134C1749206824F023FF1649FF
:1046A000206824F01FFF23F00DF823F00CF8134BC3
:1046B000134A009313494FF48B73206824F012FFC0
:1046C00011492B46114A206824F00CFF284601F0BE
:1046D00043F80F49206824F005FFFEE7A0000A0018
:1046E000A00006017817002060370408013904088B
:1046F000200F0020E9370408613804085B390408FA
:10470000663804086F3804087E3804087B380408CB
:10471000933804083A3804082C3804081E38040872
:10472000A43804080221307811F03EFA054618B387
:10473000A84CA949206824F0D5FEA849206824F097
:10474000D1FE22F0BFFF22F0BEFFA54BA54A009389
:10475000A54940F21B13206824F0C4FEA3492B4650
:10476000A34A206824F0BEFE284600F0F5FFA149C8
:10477000206824F0B7FEFEE7032000F0A7FF002822
:104780003FF47EAE934C9C49206824F0ABFE22F0AF
:1047900099FF22F098FF9949206824F0A3FE6FE664
:1047A000032000F093FF60B18A4D9349286824F0FC
:1047B00099FE22F087FF22F086FF9149286824F0B5
:1047C00091FE0121207B11F003FA054600283FF4F9
:1047D00057AE804C8049206824F084FE7F492068D1
:1047E00024F080FE22F06EFF22F06DFF7C4B7D4AAC
:1047F00000937D494FF49573206824F073FE7B4944
:104800002B467B4A206824F06DFE284600F0A4FF6A
:104810007849206824F066FEFEE70221207811F036
:10482000C3F9054618B36B4C6B49206824F05AFE57
:104830006A49206824F056FE22F044FF22F043FF2C
:10484000674B684A009368494FF49E73206824F0D0
:1048500049FE66492B46664A206824F043FE2846F6
:1048600000F07AFF6349206824F03CFEFEE7032055
:1048700000F02CFF00283FF403AE564C5E49206840
:1048800024F030FE22F01EFF22F01DFF5B4920685D
:104890000EB0BDE8704024F025BEB0F80500292810
:1048A00040F0C5800BAB0093012200210CAB11F04E
:1048B000B5F90546002800F0AD80012000F006FFA4
:1048C00000283FF4DDAD434C4E49206824F00AFE39
:1048D00022F0F8FE22F0F7FE44492B46444A2068B5
:1048E00024F000FE284600F037FF474954E7089BB4
:1048F0000133089397E001280BD1FFF7EFFC434AFF
:104900000995099B934200F39280099B0133099317
:10491000F7E7012000F0DAFE002800F088802D4D36
:104920003849286824F0DEFD22F0CCFE22F0CBFED0
:104930009DF82C203649286824F0D4FD77E001202A
:1049400000F0C4FE002800F08880224D2D49286820
:1049500024F0C8FD22F0B6FE22F0B5FE9DF82C2012
:104960002B49286824F0BEFD77E001280BD1FFF722
:10497000DDFC264A0C940C9B93423FF781AD0C9BC7
:1049800001330C93F7E7012000F0A0FE00283FF46C
:1049900077AD104C1B49206824F0A4FD22F092FE54
:1049A00022F091FE9DF81F201949206824F09AFDFD
:1049B00066E59DF81F000028D7D1FFF7CFFC134A0A
:1049C0000B900B9B93423FF75BAD0B9B01330B931B
:1049D000F7E700BF78170020E937040861380408BA
:1049E0005B390408663804086F3804087E38040808
:1049F0007B3804089338040860370408D938040861
:104A0000EE38040814390408C65504083F420F0064
:104A1000193904089DF82C0000287FF46CAFFFF7CB
:104A20005DFC234A0890089B93427FF760AFB4F87F
:104A300005002B2811D10BAB0093012200210CABF8
:104A400011F0ECF8054600287FF437AF9DF82C30C4
:104A5000012B3FF674AFFFF755FCB4F805002D2885
:104A60007FF40EAD0DF11F030093012200210AAB6C
:104A700011F0D4F8044600289BD0012000F026FE57
:104A800000283FF4FDAC0B4D0B49286824F02AFDAB
:104A900022F018FE22F017FE08492346084A28682B
:104AA00024F020FD204600F057FE0649286874E6F1
:104AB0003F420F0078170020143904087E3804089C
:104AC0007B380408C655040837B5154800F0ACFD1E
:104AD000054618B3134C1449206824F003FD13490C
:104AE000206824F0FFFC22F0EDFD22F0ECFD104BDD
:104AF000104A11490093206840F2BF1324F0F2FCE1
:104B00000E492B460E4A206824F0ECFC284600F0A3
:104B100023FE0C49206824F0E5FCFEE703B030BD1D
:104B2000FC13002078170020E937040861380408D6
:104B300040390408663804086F3804087E380408D1
:104B40007B3804089338040830B58BB00DF11F0191
:104B500008A811F0C3F8054618B3274C2749206868
:104B600024F0C0FC2649206824F0BCFC22F0AAFDF9
:104B700022F0A9FD234B244A24490093206840F2E7
:104B80005D2324F0AFFC22492B46224A206824F002
:104B9000A9FC284600F0E0FD1F49206824F0A2FC93
:104BA000FEE7032000F092FD20B3134C1B49206860
:104BB00024F098FC22F086FD22F085FD9DF820303F
:104BC0009DF81F0004939DF82130154903939DF82B
:104BD0002230144A02939DF82330002808BF0A4669
:104BE00001939DF824301049009320689DF82530EA
:104BF00024F078FC0BB030BD78170020E9370408AA
:104C0000613804083A390408663804086F38040823
:104C10007E3804087B380408933804086037040899
:104C20002C3804081E380408A438040830B58BB0AA
:104C30006C46124D0FCD0FC40FCD0FC495E8030085
:104C400084E803000E4BD3F84C21120308D5D3F8A7
:104C50005021120A8DF81820D3F850318DF81930F0
:104C6000684602F003FA074800F0E6FE03214FF41D
:104C7000806002F00BFC0BB030BD00BF7C39040833
:104C80000080E00FC017530270B5564EA6B008ACB6
:104C90000FCE0FC40FCE0FC496E8030000250323E8
:104CA00084E8030001245022294612A84E4E8DF8B4
:104CB0000E30CDE9055507958DF80C508DF80D5047
:104CC0008DF80F508DF810508DF811508DF812504E
:104CD0002DF0F6FF21462A208DF848408DF84D40F2
:104CE0008DF852408DF857408DF85C408DF861404A
:104CF0008DF866408DF86B408DF870408DF87540EA
:104D00008DF87A408DF87F408DF884408DF8894089
:104D10008DF88E408DF8934001F034FF10214FF450
:104D2000B06002F0B3FB2A46304930468DF8175088
:104D300003F062FA8DF819004FF4B06001F03EFF05
:104D40004FF47A73B0FBF3F040F2BA430B939DF843
:104D500019302A46ADF81A00009330462B462449F4
:104D60008DF824508DF821508DF8234003F05EFA21
:104D700092238DF8493095230A9008AA304605A958
:104D80008DF84E308DF810408DF80E408DF80D40A6
:104D90008DF848408DF84C408DF84D408DF85140CD
:104DA00003F07AFA12AA304603A903F09BF94FF4F4
:104DB0008033F3600F4BD3F824232243C3F824231A
:104DC000D3F8242342F48032C3F824234FF4003272
:104DD000B36A43F00203B362074BC3F884215A60FD
:104DE00026B070BDA439040800400059005A620280
:104DF0008096980000C0035000E100E008B5FFF77E
:104E000015FFFFF741FF0822014BDA6008BD00BF24
:104E10000040005938B5174B0022D3E90001D3E90F
:104E20000245154B1FF088FA0022144B1FF0CEF8F4
:104E30001FF064FD1FF028FA41EC100B104808F039
:104E40008FFE0022204629460E4B1FF075FA0B4BB1
:104E500000221FF0BBF81FF051FD1FF015FA41ECC6
:104E6000100B094808F07CFEBDE83840642007F0CC
:104E7000C5BC00BF101100200000244000001440F9
:104E80006A390408000059407339040830B50368D2
:104E90007F4A23F47F4323F00703934289B040F015
:104EA000F4800822002112207A4B10F0E9FE04461B
:104EB00010B3794D7949286824F014FB78492868A3
:104EC00024F010FB22F0FEFB22F0FDFB754B764A2E
:104ED000009376493D23286824F004FB7449234657
:104EE000744A286824F0FEFA204600F035FC724926
:104EF000286824F0F7FAFEE70146032214206F4BDE
:104F000010F0BEFE044610B3634D6449286824F0D7
:104F1000E9FA6349286824F0E5FA22F0D3FB22F08D
:104F2000D2FB604B604A009360494B23286824F011
:104F3000D9FA5F4923465F4A286824F0D3FA20460D
:104F400000F00AFC5C49286824F0CCFAFEE7014630
:104F5000052216205A4B10F093FE054610B34E4C16
:104F60004E49206824F0BEFA4D49206824F0BAFA70
:104F700022F0A8FB22F0A7FB4A4B4B4A00934B4977
:104F80005923206824F0AEFA49492B46494A206843
:104F900024F0A8FA284600F0DFFB4749206824F0F7
:104FA000A1FAFEE70DF10F0104A810F097FE0446E8
:104FB00010B3394D3949286824F094FA38492868E3
:104FC00024F090FA22F07EFB22F07DFB354B364A2E
:104FD000009336496423286824F084FA3449234630
:104FE000344A286824F07EFA204600F0B5FB3249A6
:104FF000286824F077FAFEE79DF8153001468DF811
:1050000018309DF8143008228DF819309DF81330AF
:1050100018208DF81A30FF238DF81B30FE238DF8F1
:105020001C309DF812308DF81D309DF811308DF830
:105030001E309DF810308DF81F3006AB10F020FEAA
:10504000054610B3144C1549206824F04BFA144956
:10505000206824F047FA22F035FB22F034FB114B94
:10506000114A009311497423206824F03BFA104937
:105070002B46104A206824F035FA284600F06CFBD5
:105080000D49206824F02EFAFEE709B030BD00BFBC
:10509000A0000100CC39040878170020E937040883
:1050A00061380408073A0408D53904086F38040841
:1050B0007E3804087B38040893380408FD39040856
:1050C000013A040830B50A4C0A4B22680A4D1A60AE
:1050D0000A4B85B02B600A4B019306F02BFA2B6824
:1050E000029001A92068039323F01CFE05B030BD97
:1050F000CC0A0020402200203C220020C00A0020D0
:10510000F03E0408014B186823F020BECC0A0020B2
:1051100038B506F00FFA0446064D2B68D3F8B002F6
:1051200006F0FCF9286823F024FE2046BDE838404C
:1051300006F0F4B9CC0A002010B5274C01F066FF48
:1051400002F082F9236F23F0070343F00303236780
:1051500022F0FCFB214B00209B6ADB015EBF4FF479
:1051600080321F4B9A62D4F8203123F0070343F0BA
:105170000203C4F82031D4F8283123F0070343F0A8
:105180000203C4F82831D4F8403123F0030343F07C
:105190000203C4F84031D4F8603123F0030343F034
:1051A0000203C4F86031D4F8403223F0030343F023
:1051B0000203C4F84032D4F8003223F0070343F06E
:1051C0000203C4F80032D4F8083223F0070343F096
:1051D0000203C4F8083210BD008000500040005A9D
:1051E0000060005A08B53A20012101F0CBFCBDE86F
:1051F0000840014800F00ABED00A002030B51B4D1F
:1052000095B00DAC0FCD0FC495E80700032384E8DB
:1052100007008DF84D302923154A1649CDE90223A0
:1052200040F20153CDE904130021102209A8069190
:105230002DF046FD4FF480200F4B0DAACDE907035A
:1052400009238DF824300A238DF825300B4B07A94C
:105250000A9320230B9301238DF83130084B094822
:10526000009302AB06F086FB15B030BD083F040882
:1052700000C005500008000924C00550062E00207B
:10528000F01600204C170020831E012B10B512D8F9
:10529000012910D8114B04221B6C08210020C3F3F4
:1052A000002302F073FE0E4B1B681868A8B1BDE81E
:1052B0001040436A18478B1E012B0CD801280CD8CC
:1052C000BDE810400022054B08211B6C1046C3F3BB
:1052D000002302F05BBE0129E5D910BD00C00350D8
:1052E000EC0A002008B50449044806F021FEBDE898
:1052F0000840FFF783BF00BFE40A002044170020E6
:10530000014824F062BA00BF4C170020014B1A6A12
:10531000186810474C170020014822F07BBA00BFE4
:10532000243F040830B50368524A23F47F4323F036
:1053300007039342044685B063D002F101729342A1
:1053400065D04D4A934260D10122022500212420DC
:105350000DF10D038DF80D50ADF80E2010F090FCFE
:10536000044610B3454D4649286824F0BBF845492A
:10537000286824F0B7F822F0A5F922F0A4F9424BEE
:10538000424A009342499E23286824F0ABF84149E1
:105390002346414A286824F0A5F8204600F0DCF9AD
:1053A0003E49286824F09EF8FEE72A4601460DF1A2
:1053B0000E03302010F064FC054630B32F4C30490A
:1053C000206824F08FF82F49206824F08BF822F011
:1053D00079F922F078F92C4B2C4A00932C49A4231C
:1053E000206824F07FF82B492B462B4A206824F0B4
:1053F00079F8284600F0B0F92849206824F072F8BE
:10540000FEE781798088FFF75FFB05B030BDB0F81B
:1054100005301B2BF9D1C379012B05D10189007906
:10542000C9B222F046F9F0E7022B03D1007922F04D
:1054300041F9EAE7114D1249286824F053F811495F
:10544000286824F04FF822F03DF922F03CF9144B83
:105450000E4A00930E498523286824F043F8114A28
:105460001149286824F03EF8E2791049286824F0B0
:1054700039F8FEE7A0000601A0000100781700201F
:10548000E937040861380408154004083C3F040863
:105490006F3804087E3804087B3804089338040801
:1054A0002D400408AA3F0408B03F0408C83F040880
:1054B0007FB500240368464A23F47F4323F00703A3
:1054C000934205468DF808408DF809408DF80A4052
:1054D0008DF80B408DF80C408DF80D406DD002F129
:1054E0008272934271D1B0F805303A2B6DD1FF230F
:1054F00004A91A4611E9030022F0DDF8012814BFBF
:1055000041F2FC14334B4FF03A0108BF187004F01D
:10551000FC02287910F0CAFB064610B32E4C2F4926
:10552000206823F0DFFF2E49206823F0DBFF22F004
:10553000C9F822F0C8F82B4B2B4A00932B494E2375
:10554000206823F0CFFF2A4933462A4A206823F0F7
:10555000C9FF304600F000F92749206823F0C2FF58
:10556000FEE71C4B1B78002B2FD0287910F044FB52
:10557000054650B3184C1949206823F0B3FF184969
:10558000206823F0AFFF22F09DF822F09CF8154B25
:10559000154A009315495423206823F0A3FF1449AA
:1055A0002B46144A206823F09DFF284600F0D4F8CB
:1055B0001149206823F096FFFEE7064B1B7823B1C4
:1055C00004B0BDE8704024F008BA04B070BD00BF5C
:1055D000A0000601262E002078170020E9370408D5
:1055E00061380408AC4004083F4004086F380408E0
:1055F0007E3804087B3804089338040800220949DF
:105600000B684BB1834204D1836A4AB19362012093
:1056100070471A469B6AF4E70028F5D01846704791
:105620000B60F4E77017002010B5044690B107F046
:1056300029F82046FFF7E2FF58B194F82C0040B15A
:1056400022F0A0F9044A1368013B136022F0A0F98C
:10565000002010BD2220FCE77417002070B5104D0B
:105660002B681BB100260F4B1C6804B970BD94F861
:105670002C3093B122F086F92B6884F82C60013B22
:105680002B6022F085F994F82D3013B92046FFF7EE
:10569000B5FFD4E9083120469847A46AE5E700BF82
:1056A0007417002070170020034B1B68002B0CBFE1
:1056B00001200420704700BF74170020024B1868B7
:1056C000B0FA80F040097047741700200B4B024677
:1056D0001B788BB10A4B1B78834234BF002001201A
:1056E000084B1B783BB1084B1B7843FA02F212F0CF
:1056F000010F08BF002070470120F1E7210F0020B3
:10570000220F0020272E0020230F0020012208B5A1
:10571000074B1A700022074B1A700422064B1A70AE
:105720001F22064B1A7005F005FF054B186008BDD7
:10573000210F0020272E0020220F0020230F002001
:1057400078170020024B0349186823F0CBBE00BF36
:1057500078170020CC40040870B50C4C0C49064664
:10576000206823F0BFFE05F0E5FE0546206805F041
:10577000D5FE3046FFF7E6FF284605F0CFFE20684D
:105780000449BDE8704023F0ADBE00BF781700208B
:10579000CE400408D040040807B5082022F068F87D
:1057A00002238DF80030044B6846019321F0BFFFBF
:1057B00003B05DF804FB00BF006A18102DE9F0414A
:1057C000484C8EB0264601AD0FCE0FC53368143459
:1057D0002B6006AD0FCC0FC594E80F0085E80F00D5
:1057E00001213A2001F0CEF90121572001F0CAF938
:1057F0004FF480733C4EADF81C303C4B3046039365
:1058000001A906AB059302F0B1FA0123042219465F
:10581000022002F0BBFB022100230846012202F015
:10582000B5FB012304220321022002F0AFFB042276
:1058300001231146022002F0A9FB2D4C2D4B10250F
:10584000C4F8C8344FF00213C4F8C434A3F580334D
:10585000C4F8CC341C2304F50058C4F8B4344FF415
:10586000487007F06FF904F580571420C8F8A0506D
:1058700007F068F92320C7F8A05007F063F9B921B1
:105880003046C8F8A05022F0CBF8002301211A4678
:105890000220C7F8A05002F079FB002302211A462B
:1058A000084602F073FB012300220321022002F0CC
:1058B0006DFB012300220421022002F067FB304629
:1058C00002F0B6F900215720C4F8C814C4F8C41473
:1058D000C4F8CC14C4F8B41401F054F90EB0BDE807
:1058E000F08100BFD440040800000A50E07072004C
:1058F00000C003500200030008B500F02DF8124B61
:1059000012498B4212D30020114B12498B4218D3FB
:10591000FEF7AAFC186850F82240586840F8224068
:10592000013298688242F5D30C33EAE70022F8E7A7
:105930001C6844F8220001325C68A242F8D30833A4
:10594000E4E70022F8E700BF789E0408849E04087C
:10595000849E0408849E04084FF480414FF0FF3079
:10596000114B124A10B59A60D3F8882042F47002A5
:10597000C3F888200E4A91660E4901F50052106660
:105980000D4850660220C3F8D000BFF34F8FBFF31D
:105990006F8F01244FF440330848C0F88041D36032
:1059A00004600B6110BD00BF00ED00E000200108A5
:1059B0000090005000800044F7FF370000E100E055
:1059C000014B1868704700BFF80A0020084B1B6F96
:1059D00003F00703022B04D0032B05D0012B05D0C5
:1059E000FEE7044B18687047034BFBE7034870471A
:1059F00000800050F80A0020FC0A0020002D310130
:105A000008B5FFF7E3FF054B1B6FC3F30333013307
:105A1000B0FBF3F0024B186008BD00BF00800050DF
:105A2000F40A00200048704700B4C404014B186811
:105A3000704700BFFC0A0020054B1860054B1B6F28
:105A400003F00703032B01D1FFF7DABF704700BF54
:105A5000FC0A00200080005000487047002D3101F2
:105A60004FF0B4439868C0F304400C2822D8DFE814
:105A700000F0092121212121071719211B1D1F00D9
:105A80000F4870479B6803F04073B3F1807F13D0D9
:105A9000B3F1007F12D00B4A002B08BF10467047AD
:105AA00009487047094870470948704709487047D6
:105AB00009487047002070470848704708487047F9
:105AC000405DC60000093D000024F400C0EA210149
:105AD00080BA8C010048E801005A620280841E00EE
:105AE00040420F00014B1868704700BF000B0020B8
:105AF0004FF000639B6A10B503F17842B2F5903F16
:105B00000ED21968094A91420AD1094C227812F042
:105B1000FD0F08D1DB69984708B90123237010BD38
:105B20004FF48170FBE70020F9E700BF07B0CD5EBE
:105B3000282E00204FF00053074A1A60BFF34F8F02
:105B40000649074BCA6802F4E0621343CB60BFF317
:105B50004F8F00BFFDE700BF02020FF000ED00E035
:105B60000400FA0570B5D0B1C9B10E4E431E01391B
:105B700013F8014F2046A25D02F00302012A11F83A
:105B8000012F08BF04F12000B55C05F00305012DCD
:105B900008BF2032801A01D1002CE9D170BD01204C
:105BA000FCE700BF6199040805490A681318054815
:105BB00083428CBF4FF0FF320B601046704700BF2E
:105BC000040B00200000042010B40A681378022B94
:105BD00011D014203023147913FB040307481B58F9
:105BE0005079C340DB4303F00103137008465DF8AE
:105BF000044B21F018BE5DF8044B704730C00350D1
:105C000037B50468012105463A2000F0BBFF0023A8
:105C100001226179207902F0B9F914223023217927
:105C200013FB01230E4A9B586279D340DB4303F0F8
:105C300001032370A379022B0ED100F0C7FB2A4683
:105C40000849607900F0ECFB012302466179207974
:105C5000CDE9003302F042F9002003B030BD00BFAF
:105C600030C00350C95B010802681378022B24D0AE
:105C700014213023107913FB001310495B5851791C
:105C8000CB40917903F00103012912D1508843EAF6
:105C900040034FF6E07063F03F039BB2834202D1B2
:105CA0001170538070474FF6DF718B42F9D100219C
:105CB000F6E711B983F001031370704730C0035049
:105CC00010B501213A2000F05DFF012304220321D9
:105CD000002002F05BF9002021F0BDFE0122314BD3
:105CE0003149C3F844244FF40022A3F550335A66D7
:105CF000D1F8FC202C4C12F080721EBFD1F8FC3081
:105D000023F08073C1F8FC302849D1F8803023F0AB
:105D1000030343F00203C1F880302AB1D4F8FC3009
:105D200043F08073C4F8FC304FF4607000F046FF1D
:105D3000D4F8F0301E4A43F00103C4F8F030D4F830
:105D4000FC3000F5D52043F08073C4F8FC30194BCB
:105D500000F2FC401A60184B0222B0FBF3F0174B24
:105D600001381861C3F8F0204FF48072C3F804239F
:105D70004FF06043124A0020C3F8B02F114AC3F815
:105D8000802ED3F8002E42F48072C3F8002EFF223A
:105D900083F82020D3F8002E22F48072C3F8002E5E
:105DA00010BD00BF00D0035000ED00E000800050A7
:105DB000FF030040001000E0F8590D00000004E06F
:105DC00055CEACC5090001004FF06043D3F8802EDA
:105DD00030B5D20715D501240B4D8440D5F8FC20F1
:105DE00042F08072C5F8FC20D3F8002E2243C3F89D
:105DF000002E53F82020002AF0D003F820100020B5
:105E000030BD1120FCE700BF00ED00E02DE9FF41AF
:105E100003680446B3F1B64F04D0354A934251D1DA
:105E20002F2000E02E20012100F0ACFE01230A22E9
:105E30006179207902F0AAF801230A22E179A07998
:105E400002F0A4F8092701262A4D4FF030082279E4
:105E5000637908FB025206FA03F302F5015213605C
:105E6000642006F06FFE2379627908FB035306FA7B
:105E700002F203F5825364201A6006F063FE013FCC
:105E8000E3D12068B0F1B64F1FD10323C5F8E83441
:105E90006279237943EA0243C5F8EC34E279A379C5
:105EA00043EA0243C5F8F03440F20113ADF8003084
:105EB000E36869460293A3680193237C8DF80C3054
:105EC00002F0E0F804B0BDE8F081094B9842EBD154
:105ED0000323C5F8F8346279237943EA0243C5F80D
:105EE000FC34E279A37943EA0243C5F80035DBE7E5
:105EF0000080065000C003502DE9F04F9A46564BE3
:105F000085B01B7806460F461546DDF83C909DF897
:105F100044B0DDF85080002B00F08D80072A00F29D
:105F20008C800E9B002B00F08880B9F1000F00F0F0
:105F30008480129BB3F5006F7FDC012802D1109B97
:105F4000002B7AD0454B03EB05131B7B002B76D03F
:105F5000434C1022002168462CF0B2FE04EB45149D
:105F60001022002F59D1394620462CF0A9FE43F2C9
:105F700010036380BBF1000F03D1E37843F0030308
:105F8000E370374A0E9B02EB451CCCE90193129B50
:105F90006901013BC3F30A009DF84C30012E03F068
:105FA00003034FEA836343EA001E53582D48CDF89C
:105FB00000A000EA03004EEA0003535041D113232E
:105FC0000CF1100ECCF80C309CE80F008EE80F009E
:105FD0006FF00301DCF81C20109B61F39F02012F7E
:105FE000CCF81C20CCF8143003D1CCF81890CCF8A5
:105FF00004300027194A290102EB051342F80180F9
:10600000159A28465A60694622469F605E7302F0E0
:1060100031FC384605B0BDE8F08F002120462CF059
:106020004FFE4FF444736380BBF1000FA9D1E378B6
:1060300043F03003A4E70C48ECE70C48EAE70C48CF
:10604000E8E7B8F1000FD4D19CF8023068F30413EC
:106050008CF80230CDE700BF292E00207C170020ED
:10606000FC1700200F80FFF3028000F0018000F099
:10607000078000F038B5124B05461B78DBB1E0B164
:1060800021F080FC0F4A00231146147B54B92B6089
:1060900001251A0101EB03131D738C5021F078FCCC
:1060A000204638BD0133082B02F11002EDD121F05A
:1060B0006FFC0548F5E70548F3E70548F1E700BF41
:1060C000292E00207C170020048000F0028000F0C0
:1060D000018000F013B521F055FC00230B4A147B1E
:1060E0007CB90133082B02F11002F8D1019002F0C3
:1060F00063FB074B01981C7021F04AFC204602B05C
:1061000010BD21F045FC0348F9E700BF7C170020D3
:10611000292E0020058000F00D4B10B51B78044699
:1061200093B1072812D821F02DFC0A4B03EB04137E
:106130001A7B2AB100241C7321F02AFC204610BDD2
:1061400021F026FC0448FAE70448F8E70448F6E79B
:10615000292E00207C170020068000F0028000F02D
:10616000018000F0154B13B51868002301908DF8DD
:10617000043021F007FC124B1C7824B121F008FCFC
:10618000104802B010BD01221A7021F001FC0E4B24
:1061900001A81C731C7783F82C4083F83C4083F8DB
:1061A0004C4083F85C4083F86C4083F87C400823C3
:1061B0008DF8073002F02CFB2046E2E75841040836
:1061C000292E0020038000F07C1700200A4A08B521
:1061D00012785AB107280BD8084A02EB00131B7B30
:1061E00043B1002102F006FB002008BD0448FCE793
:1061F0000448FAE70448F8E7292E00207C1700201D
:10620000028000F0018000F0078000F00A4A08B523
:1062100012785AB107280BD8084A02EB00131B7BEF
:1062200043B1012102F0E6FA002008BD0448FCE772
:106230000448FAE70448F8E7292E00207C170020DC
:10624000028000F0018000F0078000F00A4A08B5E3
:10625000127852B107280AD8084A02EB00131B7BB8
:106260003BB102F055FB002008BD0548FCE705489E
:10627000FAE70548F8E700BF292E00207C17002028
:10628000028000F0018000F0078000F00D4B1B78C9
:1062900093B1072812D889B10B4B03EB00131B7B7A
:1062A00073B10A4B1A6D012303FA00F010401ABFB4
:1062B00000200B700870704705487047054870470C
:1062C00005487047292E00207C170020000004504C
:1062D000028000F0018000F0078000F00B4A10B54A
:1062E00012780C4662B107280CD859B1084A02EB63
:1062F00000131B7B43B102F01DFB2070002010BD7A
:106300000448FCE70448FAE70448F8E7292E00208F
:106310007C170020028000F0018000F0078000F070
:106320002DE9F843174B1F6D5B6D1F4000D5FEE74D
:1063300001260025144CDFF85480DFF854903742D2
:1063400017D02368C8F850609BB1A1682846013176
:106350006268A1609847637B012B0AD148B909EBB9
:1063600045131A7B60F341021A731A7F60F34102EE
:106370001A770135082D4FEA460604F11004DED1E4
:10638000BDE8F883000004507C1700200020045072
:10639000FC17002070B5044601250B4E04B970BDF2
:1063A00094FAA4F0B0FA80F005FA00F306EB0012BC
:1063B00024EA03045368002BF0D0117B11B19168DB
:1063C0009847EBE79847E9E7FC18002008B5192043
:1063D00001F0AAFA28B14FF00072074BC3F88021F0
:1063E0001A601A2001F0A0FA28B14FF08062024B27
:1063F000C3F880211A6008BD00E100E038B5054609
:106400000C4621F0BFFA0022044B03EB05135C603D
:106410001A73BDE8384021F0BBBA00BFFC18002059
:10642000F8B505460F46164621F0ACFA104B05F0BC
:10643000FC02D3F824140023EC1804F003041443E2
:1064400021FA04FC1CF0010F07D00133042BF3D117
:10645000FF2421F09DFA2046F8BDFF2CF9D001223F
:10646000044B03EB0413C3E901761A73F1E700BF91
:1064700000C00350FC180020074BD3F82404D3F8C5
:10648000202403F50053104000F0553020F0502038
:10649000C3F82004FFF77EBF00C00350074BD3F8BA
:1064A0002404D3F8202403F50053104000F0AA3050
:1064B00020F0A020C3F82004FFF76CBF00C00350F9
:1064C000024B1968024B186816F0C2B90C0B002079
:1064D000080B002037B5920004460D4601922DF0BE
:1064E0002FF9431C0BD060B929462046019A2CF0A5
:1064F000B0FB0028044808BF002003B030BD0348AB
:10650000FBE70348F9E700BF10E000F021E000F0EE
:1065100024E000F013B5044601A802F045FA9DF806
:106520000630012223804FF4807300206380054BE6
:106530009B680A3303F01F0302FA03F3636002B09F
:1065400010BD00BF0080E00F10B504462DF000F92B
:10655000431C15D0B0B90C4B20469B680A3303F09E
:106560001F020123934023F003032344984201D1E7
:10657000002010BD50F8042B0132F7D00348F8E793
:106580000348F6E70348F4E70080E00F0EE000F070
:1065900021E000F024E000F008B521F0ECF9014B17
:1065A000186008BD3C210020014B186821F0E7B9B4
:1065B0003C210020102270B5012488B000210DEB91
:1065C00002002CF07DFB0D22002168468DF8104062
:1065D0002CF076FB02232146254C24208DF8063032
:1065E00000F0D0FA6A460021204621F0FCFA236B25
:1065F0004FF6FF73E36100231E4DADF812302046C5
:1066000004A921F098FA4FF4806000F0D7FABDF8A1
:1066100012300133B0FBF3F09BB2B3F5806F28600A
:10662000ADF8123002D2144B9842E8D8002000F0A6
:10663000C5FA2E680025114C2946B4FBF0F4104829
:106640000023E6FB04010F4A1EF0A8F90E4B084A8E
:1066500018600E4B1D70936923F010039361102294
:106660000B4BC3F880211A60284608B070BD00BFEC
:1066700000800450F021002080841E0000B0710BC7
:1066800020A1070040420F00F42100202A2E002004
:1066900000E100E0054B5B69DB0605D51022044BE9
:1066A0005A610122034B1A70704700BF00800450EA
:1066B00000A004502A2E0020044BD3F88420D206D8
:1066C000FBD4D3F88400C0F3811070470040005021
:1066D00038B5104B0546D3F880300C4603F0030361
:1066E000022B0BD0032B0DD0012B0FD1FFF76EF92E
:1066F0000E2305B1286004B1236038BDFFF7B0F95F
:106700000723F6E7FFF75CF90623F2E700231846B4
:10671000EFE700BF0080005038B5174B0546D3F8AF
:1067200020310C4603F00703013B052B20D8DFE89E
:1067300003F0030B130F171BFFF742F9052305B1F5
:10674000286004B1236038BDFFF770F90323F6E732
:10675000FFF786F90723F2E7FFF77EF90223EEE75A
:10676000FFF72EF90623EAE7FFF760F90423E6E7CF
:1067700000231846E3E700BF0080005038B5174BF0
:106780000546D3F828310C4603F00703013B052BDF
:1067900020D8DFE803F003131B0F0B17FFF710F9E6
:1067A000052305B1286004B1236038BDFFF708F95F
:1067B0000623F6E7FFF754F90723F2E7FFF736F968
:1067C0000323EEE7FFF732F90423EAE7FFF744F982
:1067D0000223E6E700231846E3E700BF00800050ED
:1067E00073B50D460021114B0191D3F88041064647
:1067F00004F00304022C13D0032C0CD0012C13D171
:1068000001A8FFF789FF10240EB1019B336005B189
:106810002C6002B070BDFFF723F907240190F3E765
:10682000FFF71AF90190EFE70C46EDE70080005002
:10683000002337B50193154B0546D3F820320C469B
:1068400003F00703013B032B1ED8DFE803F0020E21
:106850001318002101A8FFF791FF12230DB1019A2F
:106860002A6004B1236003B030BDFFF7F9F80723B5
:106870000190F3E720F08EFF0A230190EEE7FFF787
:1068800031F909230190E9E70023E7E70080005090
:1068900038B5104B0546D3F840310C4603F00303DE
:1068A000022B0BD0032B0DD0012B0FD120F072FF48
:1068B0000A2305B1286004B1236038BDFFF712F93F
:1068C0000923F6E720F069FF0C23F2E700231846BE
:1068D000EFE700BF00800050002337B50193164B4F
:1068E0000546D3F860320C4603F00703013B032B47
:1068F0001FD8DFE803F0020E1914002101A8FFF7EA
:106900000BFF10230DB1019A2A6004B1236003B07C
:1069100030BD002101A8FFF7BBFF1123F2E7FFF70D
:106920009FF807230190EDE7FFF796F80223019007
:10693000E8E70023E6E700BF00800050002337B5FA
:106940000193164B0546D3F894320C4603F0070327
:10695000013B032B1FD8DFE803F0020E19140021BE
:1069600001A8FFF7D9FE10230DB1019A2A6004B1E6
:10697000236003B030BD002101A8FFF789FF112378
:10698000F2E7FFF76DF807230190EDE7FFF764F8F2
:1069900002230190E8E70023E6E700BF00800050F3
:1069A00038B5134B0546D3F800320C4603F0070305
:1069B000013B032B18D8DFE803F0020A0E1220F087
:1069C000E9FE0A2305B1286004B1236038BDFFF752
:1069D00089F80923F6E720F0E0FE0C23F2E7FFF741
:1069E0000FF80F23800AEDE700231846EAE700BFFF
:1069F0000080005038B5134B0546D3F808320C46DA
:106A000003F00703013B032B18D8DFE803F0020A69
:106A10000E1220F0BFFE0A2305B1286004B12360E6
:106A200038BDFFF75FF80923F6E720F0B6FE0C2328
:106A3000F2E7FEF7E5FF0F23800AEDE70023184693
:106A4000EAE700BF0080005038B5104B0546D3F888
:106A500040320C4603F00303022B0BD0032B0DD066
:106A6000012B0FD120F096FE0A2305B1286004B156
:106A7000236038BDFFF736F80923F6E720F08DFED6
:106A80000C23F2E700231846EFE700BF0080005018
:106A900038B5104B0546D3F860310C4603F00303BC
:106AA000022B0BD0032B0DD0012B0FD120F072FE47
:106AB0000A2305B1286004B1236038BDFFF712F83E
:106AC0000923F6E720F069FE0C23F2E700231846BD
:106AD000EFE700BF00800050B0F5207F1FD009D83D
:106AE000B0F5007F15D003D868B1B0F5C07F0AD0EB
:106AF00000200CE0B0F5607FFAD10B4BD3F880009A
:106B0000C0F3011003E0084B186FC0F303300130ED
:106B10007047054BD3F89000C0F30460F7E7024BD1
:106B2000186FC0F38020F2E70080005002464FF457
:106B30008030104B10B598660020FFF7CDFF504312
:106B400041F671320C4BDC69DA635A6804F4803424
:106B500022F4401259B9094988428CBF4FF4801081
:106B60000020104358600CB10022DA6310BD0449C4
:106B7000F2E700BF0090005000000350005A62028C
:106B8000002D3101430905D0012B0DD0022B094BFB
:106B900018BF002300F01F0041B103F5805301220C
:106BA00002FA00F018607047034BF3E703F5005357
:106BB000F5E700BF68800050648000501FB50021D9
:106BC00080280446CDE9001100F0A58035D85E2864
:106BD00046D85E2844D8DFE800F0A243434343434D
:106BE0004343434343434343434343434343434375
:106BF00043434343434343434343A2AAA2AAB9B9ED
:106C0000B9B9B9AAC34DD9714DAAAAAA43434343FE
:106C100043434343AAAAAA79E3AA434343434343D2
:106C200043434343434343B9A2A2A2DE4D4DE88808
:106C30005EBE434343434399A200B0F5B06F00F0FA
:106C40008F802DD8B0F5207F71D00CD8B0F5C07FE3
:106C500065D0B0F5007F65D0B0F5807F00F085800D
:106C6000009804B010BDB0F5607F6AD00DD8B0F5C3
:106C7000407FF5D1FEF7C4FE02464FF42070FFF7C7
:106C80002BFFB2FBF0F0400847E0B0F5806F5DD01D
:106C9000B0F5A06FE4D100216846FFF7C9FDDFE73A
:106CA000B0F5106F77D016D8B0F5E06F78D00AD86D
:106CB000B0F5C06F6AD0B0F5D06FD1D10021684671
:106CC000FFF76EFECCE7B0F5F06FC9D10021684642
:106CD000FFF7DEFEC4E7B0F5406F3CD013D8B0F547
:106CE000206F62D0B0F5286FBAD10021314B0391EB
:106CF000D3F8703203F00303012B02D103A8FFF78E
:106D0000C7FD039B3BE0B0F5486FA9D10021684661
:106D1000FFF714FEA4E7FEF759FE0090A0E7FEF788
:106D20006FFEFAE7FEF752FE0246204604E0FEF749
:106D300067FE02464FF42070FFF7CEFEB2FBF0F084
:106D4000EBE701A8FFF7C4FC019AEEE700216846D3
:106D5000FFF7E2FC84E700216846FFF70FFD7FE7BD
:106D600000216846FFF73CFD7AE74FF0E0230291EF
:106D70001B695B0705D5FEF743FE0290029B00935B
:106D80006EE703A902A8FFF783FDF7E70021684635
:106D9000FFF77EFD64E700216846FFF72BFE5FE703
:106DA00000216846FFF750FE5AE700216846FFF7CA
:106DB00093FD55E70080005008B58020FFF7FEFEE8
:106DC000034B98429EBF4FF48032024B1A6708BDB6
:106DD000005A620200A000501FB50023B0F5807F6A
:106DE000019300F0C38064D85D2855D84C2807D89B
:106DF0002D2847D823282BD8019805B05DF804FB2F
:106E00004D381028F8D801A353F820F0636F01081B
:106E1000F96D0108F96D0108F96D0108156F010898
:106E2000F96D0108F96D0108E96F0108336F010878
:106E3000D96E0108DF6F0108F96D0108F96D0108CD
:106E4000F96D0108F96D0108F96D0108F36F01088A
:106E500024380928D0D801A353F820F0636F010823
:106E6000636F0108636F0108636F0108636F0108B6
:106E7000F96D0108596F0108F96D0108F56E0108F7
:106E8000996F01083D2800F082803E28B4D100208F
:106E900001A9FFF7D9FDAFE78028ADD15A4B1B6F91
:106EA00003F00703013B032BA6D8DFE803F05350A0
:106EB000878FB0F5F06F6AD021D8B0F5B06F4BD0A6
:106EC0000FD8B0F5607F00F0858095D3B0F5806F66
:106ED00047D0B0F5A06F8FD1002001A9FFF7A8FC23
:106EE0008AE7B0F5D06F57D0B0F5E06FCFD0B0F5EE
:106EF000C06F81D1002001A9FFF7CAFC7CE7B0F583
:106F0000206F71D00BD8B0F5086F4AD0B0F5106F74
:106F10007FF472AF002001A9FFF76CFD6CE7B0F5BC
:106F2000406F5CD0B0F5486F63D0B0F5286F7FF448
:106F300063AF0021344B0391D3F8703203F00303A5
:106F4000012B5BD0022B14BF0B46152300E0052359
:106F5000019351E70223FBE7002001A9FFF740FC62
:106F60004AE7002001A9FFF7D7FB45E702934FF05E
:106F7000E0231B695B0705D5FEF742FD0D23039354
:106F8000039BE5E703A902A8FFF782FCF8E70020CE
:106F900001A9FFF77DFD2FE7002001A9FFF700FD04
:106FA0002AE7194BD3F8003103F00303022B07D073
:106FB000032B09D0012B0BD1FEF738FD0323C7E7C4
:106FC000FEF790FD0923C3E720F0E2FB0823BFE7AB
:106FD0000123BDE7184601A9FFF77AFB0CE7002063
:106FE00001A9FFF7CBFB07E7002001A9FFF774FC1D
:106FF00002E7002001A9FFF7A1FCFDE603A8FFF7C7
:1070000047FC1123A4E700BF008000504FF480121A
:10701000034B5A664FF48032024B9A62704700BFAE
:10702000009000500050005A08B5FFF7D5FE09281F
:1070300011D00A38012811D84FF48002094B4FF6BD
:10704000FF705A6603F5D8335B6A13F0010F18BF5F
:107050004FF4FA7008BD044B1888FBE74FF6FF7039
:10706000F8E700BF009000500C0F002038B5044630
:107070008020FFF7B1FE032800F083804FF48012D8
:10708000504B4FF0A0615A6645F60E034E4AC2F8C7
:1070900080304E4B99624FF4803103F580539962F2
:1070A000916D11F48031FBD1D4E900031B0543EA53
:1070B0000063E07B0343207B43EA0043607B43EAB9
:1070C0000033A07B43EA801313619069D4E9045331
:1070D0001B0643EA856300F000400343A07EE57E83
:1070E0000343207E43EA0043607E43EA002393612A
:1070F000E069136A00280CBF0022082223F00F0366
:1071000043EA000343EA850343EA02032E4A304D73
:10711000136237D194F82430916A94F82000DB0090
:107120000D4043EA401394F821102B4343EA011326
:1071300043F480339362274B916D33EA0101FBD115
:107140004FF08071214881621369A56823F47003B0
:1071500043EA055313614FF00043836194F82230F2
:107160000BB91D4B996294F823301BB94FF4803250
:10717000194B9A6294F825301BB1134B174AC3F888
:10718000802038BD022808D11161154891614FF463
:1071900008524FF47F4120F0B5FB0B4994F82230A0
:1071A0008A6A94F820001B06154043EA401394F8BD
:1071B00024202B4343EAC20394F8232043EA0243EA
:1071C0008B62D7E7009000500040005A0050005AF0
:1071D000C7FFFEFE030001000060005AF1A7FFFF99
:1071E0003440005A37B5194CA26AA36D13F4803F9E
:1071F00018BF4FF48031164B18BF99624FF0807161
:107200009962144BA56993F9003025F47F05034476
:10721000000280B225F47F4583F30803284340EA47
:107220000340A0610C48019220F06CFBA36D019A11
:1072300013F4803F07D04FF48031074803B0BDE816
:10724000304020F05FBB03B030BD00BF0040005AAB
:107250000050005A240F00202840005A014B93F997
:1072600000007047240F0020F0B5D0E901434FF42F
:1072700000061A4A4178057856664FF4D15602271F
:1072800002F5B8325662164E4F2977604FF001076B
:1072900028BF4F2106F5805677601669F603FCD4A7
:1072A00041EA052151611B01417B43EA04230B4361
:1072B000017B43EA41039360C37B817B1B0143EA6B
:1072C0004113417C0B43017C43EA41035360837CBF
:1072D00013B16FF4D1535362F0BD00BF0090005062
:1072E00000100250014B1880704700BF0C0F0020A7
:1072F0004FF4800208B5184B5A660223174A5360B0
:10730000936813F48033FBD1012822D1FEF78EFB62
:10731000134B984215D003F5122303F5F8639842F6
:1073200013D0104B00EB8002400AB3FBF0F0520A7E
:107330000A4BDA62012218635A620022074B5A6034
:1073400008BD45F67A10084AF2E745F61A00074AE2
:10735000EEE75362F1E700BF00900050004002509A
:1073600000F0490264666666D8B80500BBCF050028
:10737000B0F5207F10B50C4657D008D8B0F5007F87
:1073800048D003D830B3B0F5C07F23D010BDB0F5DE
:10739000607FFBD129492A48D1F8FC2012F0807285
:1073A0001EBFD1F8FC3023F08073C1F8FC30D0F858
:1073B0008030611E23F0300444EA0114C0F880409C
:1073C000002AE3D01D4AD2F8FC3043F08073C2F8A3
:1073D000FC30DBE720F0A7FA20F0B3FA4FF480315D
:1073E000184B174A1967136F611E23F4704444EA5F
:1073F00001341467FEF704FB0446FFF75DF9C0F1A2
:107400000201204620F097FA00F02EF8BDE8104067
:10741000FFF7D2BC0A4A0139D2F8903023F0F85471
:1074200044EA0164C2F89040B0E7054B013C196F93
:1074300021F4806141EA84241C67A7E700ED00E0A5
:10744000008000500090005008B50121022000F09B
:10745000C3FA20F068FA20F074FA4FF48032014B3E
:107460001A6708BD0090005008B54FF4C070FFF7D0
:10747000A5FBBDE80840044988428CBF02210121D8
:107480004FF42070FFF774BF80F0FA02B0F5807FF0
:10749000F8B50C4600F04E816BD85D285DD84C28BD
:1074A00004D82D2844D8232828D8F8BD4D381028D2
:1074B000FBD801A353F820F015770108AB7401083D
:1074C000AB740108AB7401080F760108AB740108B6
:1074D000AB740108C9780108477601089F75010857
:1074E000A9780108AB740108AB740108AB740108FA
:1074F000AB740108AB740108E97801082438092845
:10750000D3D801A353F820F01577010815770108A7
:10751000157701081577010815770108AB74010884
:10752000F5760108AB740108D5750108E377010809
:107530003D2800F046813E28B7D1093C032C8CBF82
:107540000021B04BB04A98BF195DD2F8403223F009
:1075500003030B43C2F84032A7E78028A5D18B1E56
:10756000062B00F2C480DFE803F0BFADC27EC2C2CA
:10757000BC00B0F5F06F00F024813BD8B0F5B06FDF
:1075800000F0B8801BD8B0F5607F00F067818CD325
:10759000B0F5806F00F0BE80B0F5A06F85D1073CDC
:1075A0000B2C8CBF0021994B974A98BF195DD2F8DC
:1075B000203223F007030B43C2F8203275E7B0F501
:1075C000D06F00F00E81B0F5E06FB6D0B0F5C06FAF
:1075D0007FF46BAF093C032C8CBF00218C4B8A4A93
:1075E00098BF195DD2F8403123F003030B43C2F872
:1075F00040315AE7B0F5206F00F0668117D8B0F53A
:10760000086F00F01B81B0F5106F7FF44EAF093C9E
:10761000062C8CBF00217F4B7B4A98BF195DD2F8A6
:10762000083223F007030B43C2F808323DE7B0F5F8
:10763000406F00F03981B0F5486F00F05581B0F52A
:10764000286F7FF432AF112C00F05E81152C14BF2F
:10765000002102216C4AD2F8703223F003030B435D
:10766000C2F8703221E7002502264FF4803701214D
:10767000022000F0B1F920F056F920F062F9664BD3
:10768000614A1F67136F23F0070333431367FEF745
:10769000B7F90646FFF710F8C0F10201304620F0B6
:1076A0004AF90121002000F0D7F9FFF7DDFEFFF7CE
:1076B00083FB002D7FF4F9AE032C7FF4F6AE574B1D
:1076C0009F62F2E64FF48012534B0E465A664FF417
:1076D0008032534B9D6A03F58053C5F300659A626F
:1076E000C3E700250426C0E700250126BDE70025E5
:1076F0002E46BAE7023C0E2C8CBF0021494B424A71
:1077000098BF195DD2F8803123F003030B43C2F810
:107710008031CAE6023C052C8CBF0021424B3A4A1C
:1077200098BF195DD2F8203123F007030B43C2F84C
:107730002031BAE6A1F10904082C3FF6B6AE01A348
:1077400053F824F06977010869770108AB740108E0
:107750006977010897770108AB740108AB740108D9
:10776000AB740108697701084FF48032264B2F492A
:10777000586E03F580535A664B6A43F001034B621F
:10778000C1035CBF2A4B5A664FF0E022136923F015
:107790000403136189E64FF480321B4B2349586E72
:1077A00003F580535A664B6A23F001034B62C3030F
:1077B0005CBF1F4B5A664FF0E022136943F004038D
:1077C000E7E7093C032C8CBF00211A4B0E4A98BFF7
:1077D000195DD2F8603123F003030B43C2F8603126
:1077E00063E6093C062C8CBF0021134B064A98BF68
:1077F000195DD2F8003223F007030B43C2F80032C0
:1078000053E600BFC84104080080005097410408B7
:10781000C841040880410408009000500060005AEC
:107820000040005AB3410408C241040800C0075098
:1078300000A00050C841040880410408CC1E062C5A
:107840008CBF0021314B324A98BF195DD2F800310C
:1078500023F003030B43C2F8003126E62D49063C12
:10786000D1F8FC2012F080721EBFD1F8FC3023F05A
:107870008073C1F8FC30082C8CBF0020264B2449B3
:1078800098BF185DD1F8803023F003030343C1F89B
:107890008030002A3FF409AE1E4AD2F8FC3043F093
:1078A0008073C2F8FC3000E6023C052C8CBF00213E
:1078B0001A4B174A98BF195DD2F8283123F00703F5
:1078C0000B43C2F82831F0E5023C0F2C8CBF00219D
:1078D000134B0F4A98BF195DD2F8603223F00703AB
:1078E0000B43C2F86032E0E5023C0F2C8CBF002154
:1078F0000C4B074A98BF195DD2F8943223F0070366
:107900000B43C2F89432D0E50121A3E68741040875
:107910000080005000ED00E08E410408C2410408E0
:10792000A3410408A3410408054B420953F822303F
:1079300000F01F0023FA00F0C04300F00100704780
:1079400000E100E0024A536B0342FCD1704700BFE4
:1079500000400950044A4178536F23F4407343EACE
:1079600001235367704700BF004000500A4A10B51A
:107970001369044643F00403136104F0C5FC20F0CE
:107980000AF830BF20F008F804F0D2FC1CB9BDE8BA
:107990001040FEF735B810BD00ED00E0084A10B504
:1079A0001369044643F00403136104F0ADFC30BFD7
:1079B00004F0BEFC1CB9BDE81040FEF721B810BDB4
:1079C00000ED00E0034A0179D36E23F030030B434E
:1079D000D366704700400050F8B504461C4BD3F8FE
:1079E0008420D106FBD4D3F88430C3F381139C42A6
:1079F0002CD0FDF7EBFF012C064602D121461FF0EB
:107A00009AFF1FF0B8FF4FF00072124B07465A66FC
:107A100020461FF0C4FF4FF480630D4D621E93405B
:107A20002B676B6E9A0103D4D5F884309B060AD578
:107A300038461FF0A4FF022C08D13046BDE8F840BC
:107A400000211FF078BFD5F88430EAE7F8BD00BF09
:107A5000004000500060005007B518B90191FDF7D3
:107A6000B5FF0199064B1B7843B1064B984205D8E8
:107A7000012003B05DF804EBFFF7AEBF0220F8E78A
:107A80002B2E0020005A62020278034B01210020B5
:107A90001A70FFF7E1BF00BF2B2E00204FF000420D
:107AA000154B10B55A664AF6CD3314494C6C0B642D
:107AB00004F0010488B90120FFF744FF4B68DB079D
:107AC00004D50F4B58600B6BD807FCD514B10B4B8A
:107AD0000C4A1A642AF0D3FC10BD0B6B1A07FCD4B5
